{
  "contractName": "Color",
  "abi": [
    {
      "inputs": [],
      "stateMutability": "nonpayable",
      "type": "constructor"
    },
    {
      "anonymous": false,
      "inputs": [
        {
          "indexed": true,
          "internalType": "address",
          "name": "owner",
          "type": "address"
        },
        {
          "indexed": true,
          "internalType": "address",
          "name": "approved",
          "type": "address"
        },
        {
          "indexed": true,
          "internalType": "uint256",
          "name": "tokenId",
          "type": "uint256"
        }
      ],
      "name": "Approval",
      "type": "event"
    },
    {
      "anonymous": false,
      "inputs": [
        {
          "indexed": true,
          "internalType": "address",
          "name": "owner",
          "type": "address"
        },
        {
          "indexed": true,
          "internalType": "address",
          "name": "operator",
          "type": "address"
        },
        {
          "indexed": false,
          "internalType": "bool",
          "name": "approved",
          "type": "bool"
        }
      ],
      "name": "ApprovalForAll",
      "type": "event"
    },
    {
      "anonymous": false,
      "inputs": [
        {
          "indexed": true,
          "internalType": "address",
          "name": "from",
          "type": "address"
        },
        {
          "indexed": true,
          "internalType": "address",
          "name": "to",
          "type": "address"
        },
        {
          "indexed": true,
          "internalType": "uint256",
          "name": "tokenId",
          "type": "uint256"
        }
      ],
      "name": "Transfer",
      "type": "event"
    },
    {
      "inputs": [
        {
          "internalType": "address",
          "name": "to",
          "type": "address"
        },
        {
          "internalType": "uint256",
          "name": "tokenId",
          "type": "uint256"
        }
      ],
      "name": "approve",
      "outputs": [],
      "stateMutability": "nonpayable",
      "type": "function"
    },
    {
      "inputs": [
        {
          "internalType": "address",
          "name": "owner",
          "type": "address"
        }
      ],
      "name": "balanceOf",
      "outputs": [
        {
          "internalType": "uint256",
          "name": "",
          "type": "uint256"
        }
      ],
      "stateMutability": "view",
      "type": "function",
      "constant": true
    },
    {
      "inputs": [
        {
          "internalType": "uint256",
          "name": "",
          "type": "uint256"
        }
      ],
      "name": "colors",
      "outputs": [
        {
          "internalType": "string",
          "name": "",
          "type": "string"
        }
      ],
      "stateMutability": "view",
      "type": "function",
      "constant": true
    },
    {
      "inputs": [
        {
          "internalType": "uint256",
          "name": "tokenId",
          "type": "uint256"
        }
      ],
      "name": "getApproved",
      "outputs": [
        {
          "internalType": "address",
          "name": "",
          "type": "address"
        }
      ],
      "stateMutability": "view",
      "type": "function",
      "constant": true
    },
    {
      "inputs": [
        {
          "internalType": "address",
          "name": "owner",
          "type": "address"
        },
        {
          "internalType": "address",
          "name": "operator",
          "type": "address"
        }
      ],
      "name": "isApprovedForAll",
      "outputs": [
        {
          "internalType": "bool",
          "name": "",
          "type": "bool"
        }
      ],
      "stateMutability": "view",
      "type": "function",
      "constant": true
    },
    {
      "inputs": [],
      "name": "name",
      "outputs": [
        {
          "internalType": "string",
          "name": "",
          "type": "string"
        }
      ],
      "stateMutability": "view",
      "type": "function",
      "constant": true
    },
    {
      "inputs": [
        {
          "internalType": "uint256",
          "name": "tokenId",
          "type": "uint256"
        }
      ],
      "name": "ownerOf",
      "outputs": [
        {
          "internalType": "address",
          "name": "",
          "type": "address"
        }
      ],
      "stateMutability": "view",
      "type": "function",
      "constant": true
    },
    {
      "inputs": [
        {
          "internalType": "address",
          "name": "from",
          "type": "address"
        },
        {
          "internalType": "address",
          "name": "to",
          "type": "address"
        },
        {
          "internalType": "uint256",
          "name": "tokenId",
          "type": "uint256"
        }
      ],
      "name": "safeTransferFrom",
      "outputs": [],
      "stateMutability": "nonpayable",
      "type": "function"
    },
    {
      "inputs": [
        {
          "internalType": "address",
          "name": "from",
          "type": "address"
        },
        {
          "internalType": "address",
          "name": "to",
          "type": "address"
        },
        {
          "internalType": "uint256",
          "name": "tokenId",
          "type": "uint256"
        },
        {
          "internalType": "bytes",
          "name": "_data",
          "type": "bytes"
        }
      ],
      "name": "safeTransferFrom",
      "outputs": [],
      "stateMutability": "nonpayable",
      "type": "function"
    },
    {
      "inputs": [
        {
          "internalType": "address",
          "name": "operator",
          "type": "address"
        },
        {
          "internalType": "bool",
          "name": "approved",
          "type": "bool"
        }
      ],
      "name": "setApprovalForAll",
      "outputs": [],
      "stateMutability": "nonpayable",
      "type": "function"
    },
    {
      "inputs": [
        {
          "internalType": "bytes4",
          "name": "interfaceId",
          "type": "bytes4"
        }
      ],
      "name": "supportsInterface",
      "outputs": [
        {
          "internalType": "bool",
          "name": "",
          "type": "bool"
        }
      ],
      "stateMutability": "view",
      "type": "function",
      "constant": true
    },
    {
      "inputs": [],
      "name": "symbol",
      "outputs": [
        {
          "internalType": "string",
          "name": "",
          "type": "string"
        }
      ],
      "stateMutability": "view",
      "type": "function",
      "constant": true
    },
    {
      "inputs": [
        {
          "internalType": "uint256",
          "name": "index",
          "type": "uint256"
        }
      ],
      "name": "tokenByIndex",
      "outputs": [
        {
          "internalType": "uint256",
          "name": "",
          "type": "uint256"
        }
      ],
      "stateMutability": "view",
      "type": "function",
      "constant": true
    },
    {
      "inputs": [
        {
          "internalType": "address",
          "name": "owner",
          "type": "address"
        },
        {
          "internalType": "uint256",
          "name": "index",
          "type": "uint256"
        }
      ],
      "name": "tokenOfOwnerByIndex",
      "outputs": [
        {
          "internalType": "uint256",
          "name": "",
          "type": "uint256"
        }
      ],
      "stateMutability": "view",
      "type": "function",
      "constant": true
    },
    {
      "inputs": [
        {
          "internalType": "uint256",
          "name": "tokenId",
          "type": "uint256"
        }
      ],
      "name": "tokenURI",
      "outputs": [
        {
          "internalType": "string",
          "name": "",
          "type": "string"
        }
      ],
      "stateMutability": "view",
      "type": "function",
      "constant": true
    },
    {
      "inputs": [],
      "name": "totalSupply",
      "outputs": [
        {
          "internalType": "uint256",
          "name": "",
          "type": "uint256"
        }
      ],
      "stateMutability": "view",
      "type": "function",
      "constant": true
    },
    {
      "inputs": [
        {
          "internalType": "address",
          "name": "from",
          "type": "address"
        },
        {
          "internalType": "address",
          "name": "to",
          "type": "address"
        },
        {
          "internalType": "uint256",
          "name": "tokenId",
          "type": "uint256"
        }
      ],
      "name": "transferFrom",
      "outputs": [],
      "stateMutability": "nonpayable",
      "type": "function"
    },
    {
      "inputs": [
        {
          "internalType": "string",
          "name": "_color",
          "type": "string"
        }
      ],
      "name": "mint",
      "outputs": [],
      "stateMutability": "nonpayable",
      "type": "function"
    }
  ],
  "bytecode": "0x60806040523480156200001157600080fd5b50604080518082018252600a81526921b7b637b92a37b5b2b760b11b60208083019182528351808501909452600484526310d3149560e21b90840152815191929162000060916000916200007f565b508051620000769060019060208401906200007f565b50505062000162565b8280546200008d9062000125565b90600052602060002090601f016020900481019282620000b15760008555620000fc565b82601f10620000cc57805160ff1916838001178555620000fc565b82800160010185558215620000fc579182015b82811115620000fc578251825591602001919060010190620000df565b506200010a9291506200010e565b5090565b5b808211156200010a57600081556001016200010f565b600181811c908216806200013a57607f821691505b602082108114156200015c57634e487b7160e01b600052602260045260246000fd5b50919050565b611aae80620001726000396000f3fe608060405234801561001057600080fd5b50600436106101165760003560e01c80636352211e116100a2578063b88d4fde11610071578063b88d4fde14610237578063bd11f69d1461024a578063c87b56dd1461025d578063d85d3d2714610270578063e985e9c51461028357600080fd5b80636352211e146101f657806370a082311461020957806395d89b411461021c578063a22cb4651461022457600080fd5b806318160ddd116100e957806318160ddd1461019857806323b872dd146101aa5780632f745c59146101bd57806342842e0e146101d05780634f6ccce7146101e357600080fd5b806301ffc9a71461011b57806306fdde0314610143578063081812fc14610158578063095ea7b314610183575b600080fd5b61012e610129366004611712565b6102bf565b60405190151581526020015b60405180910390f35b61014b6102ea565b60405161013a9190611862565b61016b610166366004611795565b61037c565b6040516001600160a01b03909116815260200161013a565b6101966101913660046116e8565b610416565b005b6008545b60405190815260200161013a565b6101966101b83660046115f4565b61052c565b61019c6101cb3660046116e8565b61055d565b6101966101de3660046115f4565b6105f3565b61019c6101f1366004611795565b61060e565b61016b610204366004611795565b6106a1565b61019c6102173660046115a6565b610718565b61014b61079f565b6101966102323660046116ac565b6107ae565b610196610245366004611630565b610873565b61014b610258366004611795565b6108ab565b61014b61026b366004611795565b610957565b61019661027e36600461174c565b610a3f565b61012e6102913660046115c1565b6001600160a01b03918216600090815260056020908152604080832093909416825291909152205460ff1690565b60006001600160e01b0319821663780e9d6360e01b14806102e457506102e482610b47565b92915050565b6060600080546102f990611987565b80601f016020809104026020016040519081016040528092919081815260200182805461032590611987565b80156103725780601f1061034757610100808354040283529160200191610372565b820191906000526020600020905b81548152906001019060200180831161035557829003601f168201915b5050505050905090565b6000818152600260205260408120546001600160a01b03166103fa5760405162461bcd60e51b815260206004820152602c60248201527f4552433732313a20617070726f76656420717565727920666f72206e6f6e657860448201526b34b9ba32b73a103a37b5b2b760a11b60648201526084015b60405180910390fd5b506000908152600460205260409020546001600160a01b031690565b6000610421826106a1565b9050806001600160a01b0316836001600160a01b0316141561048f5760405162461bcd60e51b815260206004820152602160248201527f4552433732313a20617070726f76616c20746f2063757272656e74206f776e656044820152603960f91b60648201526084016103f1565b336001600160a01b03821614806104ab57506104ab8133610291565b61051d5760405162461bcd60e51b815260206004820152603860248201527f4552433732313a20617070726f76652063616c6c6572206973206e6f74206f7760448201527f6e6572206e6f7220617070726f76656420666f7220616c6c000000000000000060648201526084016103f1565b6105278383610b97565b505050565b6105363382610c05565b6105525760405162461bcd60e51b81526004016103f1906118c7565b610527838383610cfc565b600061056883610718565b82106105ca5760405162461bcd60e51b815260206004820152602b60248201527f455243373231456e756d657261626c653a206f776e657220696e646578206f7560448201526a74206f6620626f756e647360a81b60648201526084016103f1565b506001600160a01b03919091166000908152600660209081526040808320938352929052205490565b61052783838360405180602001604052806000815250610873565b600061061960085490565b821061067c5760405162461bcd60e51b815260206004820152602c60248201527f455243373231456e756d657261626c653a20676c6f62616c20696e646578206f60448201526b7574206f6620626f756e647360a01b60648201526084016103f1565b6008828154811061068f5761068f611a33565b90600052602060002001549050919050565b6000818152600260205260408120546001600160a01b0316806102e45760405162461bcd60e51b815260206004820152602960248201527f4552433732313a206f776e657220717565727920666f72206e6f6e657869737460448201526832b73a103a37b5b2b760b91b60648201526084016103f1565b60006001600160a01b0382166107835760405162461bcd60e51b815260206004820152602a60248201527f4552433732313a2062616c616e636520717565727920666f7220746865207a65604482015269726f206164647265737360b01b60648201526084016103f1565b506001600160a01b031660009081526003602052604090205490565b6060600180546102f990611987565b6001600160a01b0382163314156108075760405162461bcd60e51b815260206004820152601960248201527f4552433732313a20617070726f766520746f2063616c6c65720000000000000060448201526064016103f1565b3360008181526005602090815260408083206001600160a01b03871680855290835292819020805460ff191686151590811790915590519081529192917f17307eab39ab6107e8899845ad3d59bd9653f200f220920489ca2b5937696c31910160405180910390a35050565b61087d3383610c05565b6108995760405162461bcd60e51b81526004016103f1906118c7565b6108a584848484610ea7565b50505050565b600a81815481106108bb57600080fd5b9060005260206000200160009150905080546108d690611987565b80601f016020809104026020016040519081016040528092919081815260200182805461090290611987565b801561094f5780601f106109245761010080835404028352916020019161094f565b820191906000526020600020905b81548152906001019060200180831161093257829003601f168201915b505050505081565b6000818152600260205260409020546060906001600160a01b03166109d65760405162461bcd60e51b815260206004820152602f60248201527f4552433732314d657461646174613a2055524920717565727920666f72206e6f60448201526e3732bc34b9ba32b73a103a37b5b2b760891b60648201526084016103f1565b60006109ed60408051602081019091526000815290565b90506000815111610a0d5760405180602001604052806000815250610a38565b80610a1784610eda565b604051602001610a289291906117f6565b6040516020818303038152906040525b9392505050565b600b81604051610a4f91906117da565b9081526040519081900360200190205460ff1615610ac05760405162461bcd60e51b815260206004820152602860248201527f546f6b656e2077697468207468697320636f6c6f7220697320616c7265616479604482015267081919599a5b995960c21b60648201526084016103f1565b600a80546001810182556000919091528151610b03917fc65a7bb8d6351c1cf70c95a316cc6a92839c986682d98bc35f958f4883f9d2a80190602084019061147b565b50600a54610b113382610fd8565b6001600b83604051610b2391906117da565b908152604051908190036020019020805491151560ff199092169190911790555050565b60006001600160e01b031982166380ac58cd60e01b1480610b7857506001600160e01b03198216635b5e139f60e01b145b806102e457506301ffc9a760e01b6001600160e01b03198316146102e4565b600081815260046020526040902080546001600160a01b0319166001600160a01b0384169081179091558190610bcc826106a1565b6001600160a01b03167f8c5be1e5ebec7d5bd14f71427d1e84f3dd0314c0f7b2291e5b200ac8c7c3b92560405160405180910390a45050565b6000818152600260205260408120546001600160a01b0316610c7e5760405162461bcd60e51b815260206004820152602c60248201527f4552433732313a206f70657261746f7220717565727920666f72206e6f6e657860448201526b34b9ba32b73a103a37b5b2b760a11b60648201526084016103f1565b6000610c89836106a1565b9050806001600160a01b0316846001600160a01b03161480610cc45750836001600160a01b0316610cb98461037c565b6001600160a01b0316145b80610cf457506001600160a01b0380821660009081526005602090815260408083209388168352929052205460ff165b949350505050565b826001600160a01b0316610d0f826106a1565b6001600160a01b031614610d775760405162461bcd60e51b815260206004820152602960248201527f4552433732313a207472616e73666572206f6620746f6b656e2074686174206960448201526839903737ba1037bbb760b91b60648201526084016103f1565b6001600160a01b038216610dd95760405162461bcd60e51b8152602060048201526024808201527f4552433732313a207472616e7366657220746f20746865207a65726f206164646044820152637265737360e01b60648201526084016103f1565b610de4838383611126565b610def600082610b97565b6001600160a01b0383166000908152600360205260408120805460019290610e18908490611944565b90915550506001600160a01b0382166000908152600360205260408120805460019290610e46908490611918565b909155505060008181526002602052604080822080546001600160a01b0319166001600160a01b0386811691821790925591518493918716917fddf252ad1be2c89b69c2b068fc378daa952ba7f163c4a11628f55a4df523b3ef91a4505050565b610eb2848484610cfc565b610ebe848484846111de565b6108a55760405162461bcd60e51b81526004016103f190611875565b606081610efe5750506040805180820190915260018152600360fc1b602082015290565b8160005b8115610f285780610f12816119c2565b9150610f219050600a83611930565b9150610f02565b60008167ffffffffffffffff811115610f4357610f43611a49565b6040519080825280601f01601f191660200182016040528015610f6d576020820181803683370190505b5090505b8415610cf457610f82600183611944565b9150610f8f600a866119dd565b610f9a906030611918565b60f81b818381518110610faf57610faf611a33565b60200101906001600160f81b031916908160001a905350610fd1600a86611930565b9450610f71565b6001600160a01b03821661102e5760405162461bcd60e51b815260206004820181905260248201527f4552433732313a206d696e7420746f20746865207a65726f206164647265737360448201526064016103f1565b6000818152600260205260409020546001600160a01b0316156110935760405162461bcd60e51b815260206004820152601c60248201527f4552433732313a20746f6b656e20616c7265616479206d696e7465640000000060448201526064016103f1565b61109f60008383611126565b6001600160a01b03821660009081526003602052604081208054600192906110c8908490611918565b909155505060008181526002602052604080822080546001600160a01b0319166001600160a01b03861690811790915590518392907fddf252ad1be2c89b69c2b068fc378daa952ba7f163c4a11628f55a4df523b3ef908290a45050565b6001600160a01b0383166111815761117c81600880546000838152600960205260408120829055600182018355919091527ff3f7a9fe364faab93b216da50a3214154f22a0a2b415b23a84c8169e8b636ee30155565b6111a4565b816001600160a01b0316836001600160a01b0316146111a4576111a483826112eb565b6001600160a01b0382166111bb5761052781611388565b826001600160a01b0316826001600160a01b031614610527576105278282611437565b60006001600160a01b0384163b156112e057604051630a85bd0160e11b81526001600160a01b0385169063150b7a0290611222903390899088908890600401611825565b602060405180830381600087803b15801561123c57600080fd5b505af192505050801561126c575060408051601f3d908101601f191682019092526112699181019061172f565b60015b6112c6573d80801561129a576040519150601f19603f3d011682016040523d82523d6000602084013e61129f565b606091505b5080516112be5760405162461bcd60e51b81526004016103f190611875565b805181602001fd5b6001600160e01b031916630a85bd0160e11b149050610cf4565b506001949350505050565b600060016112f884610718565b6113029190611944565b600083815260076020526040902054909150808214611355576001600160a01b03841660009081526006602090815260408083208584528252808320548484528184208190558352600790915290208190555b5060009182526007602090815260408084208490556001600160a01b039094168352600681528383209183525290812055565b60085460009061139a90600190611944565b600083815260096020526040812054600880549394509092849081106113c2576113c2611a33565b9060005260206000200154905080600883815481106113e3576113e3611a33565b600091825260208083209091019290925582815260099091526040808220849055858252812055600880548061141b5761141b611a1d565b6001900381819060005260206000200160009055905550505050565b600061144283610718565b6001600160a01b039093166000908152600660209081526040808320868452825280832085905593825260079052919091209190915550565b82805461148790611987565b90600052602060002090601f0160209004810192826114a957600085556114ef565b82601f106114c257805160ff19168380011785556114ef565b828001600101855582156114ef579182015b828111156114ef5782518255916020019190600101906114d4565b506114fb9291506114ff565b5090565b5b808211156114fb5760008155600101611500565b600067ffffffffffffffff8084111561152f5761152f611a49565b604051601f8501601f19908116603f0116810190828211818310171561155757611557611a49565b8160405280935085815286868601111561157057600080fd5b858560208301376000602087830101525050509392505050565b80356001600160a01b03811681146115a157600080fd5b919050565b6000602082840312156115b857600080fd5b610a388261158a565b600080604083850312156115d457600080fd5b6115dd8361158a565b91506115eb6020840161158a565b90509250929050565b60008060006060848603121561160957600080fd5b6116128461158a565b92506116206020850161158a565b9150604084013590509250925092565b6000806000806080858703121561164657600080fd5b61164f8561158a565b935061165d6020860161158a565b925060408501359150606085013567ffffffffffffffff81111561168057600080fd5b8501601f8101871361169157600080fd5b6116a087823560208401611514565b91505092959194509250565b600080604083850312156116bf57600080fd5b6116c88361158a565b9150602083013580151581146116dd57600080fd5b809150509250929050565b600080604083850312156116fb57600080fd5b6117048361158a565b946020939093013593505050565b60006020828403121561172457600080fd5b8135610a3881611a5f565b60006020828403121561174157600080fd5b8151610a3881611a5f565b60006020828403121561175e57600080fd5b813567ffffffffffffffff81111561177557600080fd5b8201601f8101841361178657600080fd5b610cf484823560208401611514565b6000602082840312156117a757600080fd5b5035919050565b600081518084526117c681602086016020860161195b565b601f01601f19169290920160200192915050565b600082516117ec81846020870161195b565b9190910192915050565b6000835161180881846020880161195b565b83519083019061181c81836020880161195b565b01949350505050565b6001600160a01b0385811682528416602082015260408101839052608060608201819052600090611858908301846117ae565b9695505050505050565b602081526000610a3860208301846117ae565b60208082526032908201527f4552433732313a207472616e7366657220746f206e6f6e20455243373231526560408201527131b2b4bb32b91034b6b83632b6b2b73a32b960711b606082015260800190565b60208082526031908201527f4552433732313a207472616e736665722063616c6c6572206973206e6f74206f6040820152701ddb995c881b9bdc88185c1c1c9bdd9959607a1b606082015260800190565b6000821982111561192b5761192b6119f1565b500190565b60008261193f5761193f611a07565b500490565b600082821015611956576119566119f1565b500390565b60005b8381101561197657818101518382015260200161195e565b838111156108a55750506000910152565b600181811c9082168061199b57607f821691505b602082108114156119bc57634e487b7160e01b600052602260045260246000fd5b50919050565b60006000198214156119d6576119d66119f1565b5060010190565b6000826119ec576119ec611a07565b500690565b634e487b7160e01b600052601160045260246000fd5b634e487b7160e01b600052601260045260246000fd5b634e487b7160e01b600052603160045260246000fd5b634e487b7160e01b600052603260045260246000fd5b634e487b7160e01b600052604160045260246000fd5b6001600160e01b031981168114611a7557600080fd5b5056fea2646970667358221220c9afe90d54e06d33f0d0143dca6b38b9bf8323cb264f197a5e5cf20ca3818ac664736f6c63430008060033",
  "immutableReferences": {},
  "source": "// SPDX-License-Identifier: MIT\npragma solidity ^0.8.0;\n\nimport \"@openzeppelin/contracts/token/ERC721/ERC721.sol\";\n// import \"@openzeppelin/contracts/token/ERC721/extensions/ERC721URIStorage.sol\";\nimport \"@openzeppelin/contracts/token/ERC721/extensions/ERC721Enumerable.sol\";\nimport \"@openzeppelin/contracts/utils/Counters.sol\";\n\ncontract Color is ERC721Enumerable {\n    // using Counters for Counters.Counter;\n    // Counters.Counter private _tokenIds;\n    string[] public colors;\n    mapping(string => bool) _colorExists;\n\n    constructor() ERC721(\"ColorToken\", \"CLRT\") {}\n\n    //e.g. color = \"#ffffff\"\n    function mint(string  memory _color) public {\n      //Require unique color\n      require(!_colorExists[_color], \"Token with this color is already defined\");\n      //Color - add it\n      colors.push(_color); //push returns the length of the new array\n      uint _id = colors.length;\n      //Call the mint function\n      _mint(msg.sender, _id);\n      //Color - track it\n      _colorExists[_color] = true;\n    }\n\n    // function awardItem(address player, string memory tokenURI)\n    //     public\n    //     returns (uint256)\n    // {\n    //     _tokenIds.increment();\n\n    //     uint256 newItemId = _tokenIds.current();\n    //     _mint(player, newItemId);\n    //     _setTokenURI(newItemId, tokenURI);\n\n    //     return newItemId;\n    // }\n}",
  "sourcePath": "/Volumes/Workspace/test/blockchain-token-sample/ERC721/color-token/smart-contract/contracts/Color.sol",
  "compiler": {
    "name": "solc",
    "version": "0.8.6+commit.11564f7e.Emscripten.clang"
  },
  "schemaVersion": "3.4.1",
  "updatedAt": "2021-07-02T17:22:48.498Z",
  "networkType": "ethereum",
  "devdoc": {
    "kind": "dev",
    "methods": {
      "approve(address,uint256)": {
        "details": "See {IERC721-approve}."
      },
      "balanceOf(address)": {
        "details": "See {IERC721-balanceOf}."
      },
      "getApproved(uint256)": {
        "details": "See {IERC721-getApproved}."
      },
      "isApprovedForAll(address,address)": {
        "details": "See {IERC721-isApprovedForAll}."
      },
      "name()": {
        "details": "See {IERC721Metadata-name}."
      },
      "ownerOf(uint256)": {
        "details": "See {IERC721-ownerOf}."
      },
      "safeTransferFrom(address,address,uint256)": {
        "details": "See {IERC721-safeTransferFrom}."
      },
      "safeTransferFrom(address,address,uint256,bytes)": {
        "details": "See {IERC721-safeTransferFrom}."
      },
      "setApprovalForAll(address,bool)": {
        "details": "See {IERC721-setApprovalForAll}."
      },
      "supportsInterface(bytes4)": {
        "details": "See {IERC165-supportsInterface}."
      },
      "symbol()": {
        "details": "See {IERC721Metadata-symbol}."
      },
      "tokenByIndex(uint256)": {
        "details": "See {IERC721Enumerable-tokenByIndex}."
      },
      "tokenOfOwnerByIndex(address,uint256)": {
        "details": "See {IERC721Enumerable-tokenOfOwnerByIndex}."
      },
      "tokenURI(uint256)": {
        "details": "See {IERC721Metadata-tokenURI}."
      },
      "totalSupply()": {
        "details": "See {IERC721Enumerable-totalSupply}."
      },
      "transferFrom(address,address,uint256)": {
        "details": "See {IERC721-transferFrom}."
      }
    },
    "version": 1
  },
  "userdoc": {
    "kind": "user",
    "methods": {},
    "version": 1
  }
}