{
  "contractName": "DexPool",
  "abi": [
    {
      "inputs": [],
      "stateMutability": "nonpayable",
      "type": "constructor"
    },
    {
      "anonymous": false,
      "inputs": [
        {
          "indexed": false,
          "internalType": "uint256",
          "name": "amount",
          "type": "uint256"
        }
      ],
      "name": "Bought",
      "type": "event"
    },
    {
      "anonymous": false,
      "inputs": [
        {
          "indexed": false,
          "internalType": "uint256",
          "name": "amount",
          "type": "uint256"
        }
      ],
      "name": "Sold",
      "type": "event"
    },
    {
      "inputs": [],
      "name": "token",
      "outputs": [
        {
          "internalType": "contract DexToken",
          "name": "",
          "type": "address"
        }
      ],
      "stateMutability": "view",
      "type": "function",
      "constant": true
    },
    {
      "inputs": [],
      "name": "buy",
      "outputs": [],
      "stateMutability": "payable",
      "type": "function",
      "payable": true
    },
    {
      "inputs": [
        {
          "internalType": "uint256",
          "name": "amount",
          "type": "uint256"
        }
      ],
      "name": "sell",
      "outputs": [],
      "stateMutability": "nonpayable",
      "type": "function"
    }
  ],
  "bytecode": "0x608060405234801561001057600080fd5b5060405161001d9061005f565b604051809103906000f080158015610039573d6000803e3d6000fd5b50600080546001600160a01b0319166001600160a01b039290921691909117905561006c565b6104778061048683390190565b61040b8061007b6000396000f3fe6080604052600436106100345760003560e01c8063a6f2ae3a14610039578063e4849b3214610043578063fc0c546a1461006d575b600080fd5b61004161009e565b005b34801561004f57600080fd5b506100416004803603602081101561006657600080fd5b5035610277565b34801561007957600080fd5b506100826103a1565b604080516001600160a01b039092168252519081900360200190f35b60008054604080516370a0823160e01b815230600482015290513493926001600160a01b0316916370a08231916024808301926020929190829003018186803b1580156100ea57600080fd5b505afa1580156100fe573d6000803e3d6000fd5b505050506040513d602081101561011457600080fd5b505190508161016a576040805162461bcd60e51b815260206004820152601b60248201527f596f75206e65656420746f2073656e6420736f6d652045746865720000000000604482015290519081900360640190fd5b808211156101bf576040805162461bcd60e51b815260206004820181905260248201527f4e6f7420656e6f75676820746f6b656e7320696e207468652072657365727665604482015290519081900360640190fd5b600080546040805163a9059cbb60e01b81523360048201526024810186905290516001600160a01b039092169263a9059cbb926044808401936020939083900390910190829087803b15801561021457600080fd5b505af1158015610228573d6000803e3d6000fd5b505050506040513d602081101561023e57600080fd5b50506040805183815290517f4e08ba899977cf7d4c2964bce71c6b9a7ef76ee5166a4c1249a1e08016e33ef19181900360200190a15050565b600081116102b65760405162461bcd60e51b81526004018080602001828103825260258152602001806103b16025913960400191505060405180910390fd5b60008054604080516323b872dd60e01b81523360048201523060248201526044810185905290516001600160a01b03909216926323b872dd926064808401936020939083900390910190829087803b15801561031157600080fd5b505af1158015610325573d6000803e3d6000fd5b505050506040513d602081101561033b57600080fd5b5050604051339082156108fc029083906000818181858888f1935050505015801561036a573d6000803e3d6000fd5b506040805182815290517f92f64ca637d023f354075a4be751b169c1a8a9ccb6d33cdd0cb35205439957279181900360200190a150565b6000546001600160a01b03168156fe596f75206e65656420746f2073656c6c206174206c6561737420736f6d6520746f6b656e73a2646970667358221220a7552df0d0648281e9d0a63d117a56c17748a05276e8ffb157fdb2fac39404c364736f6c634300060c0033608060405269021e19e0c9bab240000060025534801561001e57600080fd5b5060025433600090815260208190526040902055610436806100416000396000f3fe608060405234801561001057600080fd5b506004361061007d5760003560e01c8063313ce5671161005b578063313ce5671461016357806370a082311461018157806395d89b41146101a7578063a9059cbb146101af5761007d565b806306fdde031461008257806318160ddd146100ff57806323b872dd14610119575b600080fd5b61008a6101db565b6040805160208082528351818301528351919283929083019185019080838360005b838110156100c45781810151838201526020016100ac565b50505050905090810190601f1680156100f15780820380516001836020036101000a031916815260200191505b509250505060405180910390f35b6101076101ff565b60408051918252519081900360200190f35b61014f6004803603606081101561012f57600080fd5b506001600160a01b03813581169160208101359091169060400135610205565b604080519115158252519081900360200190f35b61016b6102db565b6040805160ff9092168252519081900360200190f35b6101076004803603602081101561019757600080fd5b50356001600160a01b03166102e0565b61008a6102fb565b61014f600480360360408110156101c557600080fd5b506001600160a01b03813516906020013561031a565b604051806040016040528060088152602001672232bc2a37b5b2b760c11b81525081565b60025490565b6001600160a01b03831660009081526020819052604081205482111561022a57600080fd5b6001600160a01b03841660009081526020819052604090205461024d90836103d8565b6001600160a01b03808616600090815260208190526040808220939093559085168152205461027c90836103ea565b6001600160a01b038085166000818152602081815260409182902094909455805186815290519193928816927fddf252ad1be2c89b69c2b068fc378daa952ba7f163c4a11628f55a4df523b3ef92918290030190a35060019392505050565b601281565b6001600160a01b031660009081526020819052604090205490565b60405180604001604052806003815260200162222a2760e91b81525081565b3360009081526020819052604081205482111561033657600080fd5b3360009081526020819052604090205461035090836103d8565b33600090815260208190526040808220929092556001600160a01b0385168152205461037c90836103ea565b6001600160a01b038416600081815260208181526040918290209390935580518581529051919233927fddf252ad1be2c89b69c2b068fc378daa952ba7f163c4a11628f55a4df523b3ef9281900390910190a350600192915050565b6000828211156103e457fe5b50900390565b6000828201838110156103f957fe5b939250505056fea2646970667358221220e86a062be27556b94017def86d20c93c85f5008f875d933fbc18825085bc383c64736f6c634300060c0033",
  "immutableReferences": {},
  "source": "// SPDX-License-Identifier: MIT\r\npragma solidity ^0.6.0;\r\nimport \"./DexToken.sol\";\r\n\r\ncontract DexPool {\r\n    \r\n    event Bought(uint256 amount);\r\n    event Sold(uint256 amount);\r\n\r\n    DexToken public token;\r\n\r\n    constructor() public {\r\n        token = new DexToken();\r\n    }\r\n    \r\n    function buy() payable public {\r\n        uint256 amountTobuy = msg.value;\r\n        uint256 dexBalance = token.balanceOf(address(this));\r\n        require(amountTobuy > 0, \"You need to send some Ether\");\r\n        require(amountTobuy <= dexBalance, \"Not enough tokens in the reserve\");\r\n        token.transfer(msg.sender, amountTobuy);\r\n        emit Bought(amountTobuy);\r\n    }\r\n    \r\n    function sell(uint256 amount) public {\r\n        require(amount > 0, \"You need to sell at least some tokens\");\r\n        // uint256 allowance = token.allowance(msg.sender, address(this));\r\n        // require(allowance >= amount, \"Check the token allowance\");\r\n        token.transferFrom(msg.sender, address(this), amount);\r\n        msg.sender.transfer(amount);\r\n        emit Sold(amount);\r\n    }\r\n\r\n}",
  "sourcePath": "F:/Projects/Test/Blockchain/blockchain-dapp-samples/erc20/token-swap/smart-contract/contracts/DexPool.sol",
  "compiler": {
    "name": "solc",
    "version": "0.6.12+commit.27d51765.Emscripten.clang"
  },
  "schemaVersion": "3.4.1",
  "updatedAt": "2021-07-15T16:30:55.464Z",
  "networkType": "ethereum",
  "devdoc": {
    "kind": "dev",
    "methods": {},
    "version": 1
  },
  "userdoc": {
    "kind": "user",
    "methods": {},
    "version": 1
  }
}